:100000000C9463000C948B000C948B000C944204B1
:100010000C9442040C9442040C948B000C948B00BE
:100020000C948B000C948B000C948B000C948B0024
:100030000C948B000C948B000C948B000C948B0014
:100040000C94F8030C948B000C94C6030C94A0033E
:100050000C948B000C948B000C948B000C948B00F4
:100060000C948B000C948B000000000024002700EF
:100070002A0000000008000201000003040700003D
:1000800000000000000000000000230026002900FE
:1000900000000000250028002B00040404040404D0
:1000A0000404020202020202030303030303010227
:1000B00004081020408001020408102001020408F6
:1000C0001020BA04610711241FBECFEFD8E0DEBFB5
:1000D000CDBF11E0A0E0B1E0E0EEF5E102C0059097
:1000E0000D92A038B107D9F722E0A0E8B1E001C035
:1000F0001D92A339B207E1F710E0C2E6D0E004C0D8
:100100002197FE010E94EB08C136D107C9F70E9472
:1001100096050C94E30A0C940000AF92BF92CF9224
:10012000DF92EF92FF920F931F93CF93DF936C01B7
:100130007B018B01040F151FEB015E01AE18BF0898
:10014000C017D10759F06991D601ED91FC9101904A
:10015000F081E02DC6010995892B79F7C501DF9162
:10016000CF911F910F91FF90EF90DF90CF90BF90B4
:10017000AF900895FC01538D448D252F30E0842FDE
:1001800090E0821B930B541710F0CF9608950197BF
:100190000895FC01918D828D981761F0A28DAE0FAC
:1001A000BF2FB11D5D968C91928D9F5F9F73928F33
:1001B00090E008958FEF9FEF0895FC01918D828D5F
:1001C000981731F0828DE80FF11D858D90E008952C
:1001D0008FEF9FEF0895FC01918D228D892F90E084
:1001E000805C9F4F821B91098F73992708958DEC36
:1001F00091E00E94EB0021E0892B09F420E0822F9E
:10020000089580E090E0892B29F00E94F700811189
:100210000C9400000895FC01A48DA80FB92FB11D06
:10022000A35ABF4F2C91848D90E001968F7399272C
:10023000848FA689B7892C93A089B1898C9183700A
:1002400080648C93938D848D981306C00288F38903
:10025000E02D80818F7D80830895EF92FF920F9330
:100260001F93CF93DF93EC0181E0888F9B8D8C8D62
:1002700098131AC0E889F989808185FF15C09FB756
:10028000F894EE89FF896083E889F9898081837019
:10029000806480839FBF81E090E0DF91CF911F91C8
:1002A0000F91FF90EF900895F62E0B8D10E00F5FE9
:1002B0001F4F0F731127E02E8C8D8E110CC00FB6BF
:1002C00007FCFACFE889F989808185FFF5CFCE0157
:1002D0000E940B01F1CFEB8DEC0FFD2FF11DE35AC6
:1002E000FF4FF0829FB7F8940B8FEA89FB898081DA
:1002F0008062CFCFCF93DF93EC01888D8823B9F054
:10030000AA89BB89E889F9898C9185FD03C0808120
:1003100086FD0DC00FB607FCF7CF8C9185FFF2CF9D
:10032000808185FFEDCFCE010E940B01E9CFDF91E7
:10033000CF910895833081F028F4813099F0823094
:10034000A9F008958730A9F08830C9F08430B1F45D
:10035000809180008F7D03C0809180008F77809393
:100360008000089584B58F7784BD089584B58F7D0E
:10037000FBCF8091B0008F778093B000089580917B
:10038000B0008F7DF9CFCF93DF93282F30E0F901B4
:10039000EE58FF4F8491F901E255FF4FD491F901D6
:1003A000E656FF4FC491CC23A1F081110E949A011F
:1003B000EC2FF0E0EE0FFF1FEA57FF4FA591B4912D
:1003C000EC91ED2381E090E009F480E0DF91CF91A2
:1003D000089580E090E0FACF1F93CF93DF93282F0A
:1003E00030E0F901EE58FF4F8491F901E255FF4FDB
:1003F000D491F901E656FF4FC491CC23A9F0162FF2
:1004000081110E949A01EC2FF0E0EE0FFF1FE057E0
:10041000FF4FA591B4918FB7F894EC91111108C0DA
:10042000D095DE23DC938FBFDF91CF911F9108958C
:10043000DE2BF8CFCF93DF9390E0FC01E255FF4F26
:10044000249186569F4FFC0184918823D1F090E03F
:10045000880F991FFC01E859FF4FA591B491FC0149
:10046000E057FF4FC591D49161110EC09FB7F8942A
:100470008C91E22FE0958E238C932881E223E883F0
:100480009FBFDF91CF9108958FB7F894EC91E22B45
:10049000EC938FBFF6CF3FB7F8948091C501909150
:1004A000C601A091C701B091C80126B5A89B05C09F
:1004B0002F3F19F00196A11DB11D3FBFBA2FA92FE3
:1004C000982F8827BC01CD01620F711D811D911DE0
:1004D00042E0660F771F881F991F4A95D1F708954C
:1004E0008F929F92AF92BF92CF92DF92EF92FF9244
:1004F0004B015C010E944B026B017C010E944B028C
:100500006C197D098E099F09683E7340810591052C
:10051000A8F321E0821A9108A108B10888EEC80E5C
:1005200083E0D81EE11CF11C81149104A104B104E4
:1005300029F7FF90EF90DF90CF90BF90AF909F9002
:100540008F9008952091CB013091CC012817390765
:1005500071F49091C9018091CA01981741F0E0911E
:10056000C901F0E0E058FE4F808190E008958FEFE0
:100570009FEF08950895EF92FF920F931F93CF93EB
:10058000DF93DC015C96ED90FC905D97E114F10443
:1005900079F481E090E013969C938E93129790E00B
:1005A00080E0DF91CF911F910F91FF90EF90089520
:1005B0005196ED91FC91529750968C915097982FAF
:1005C00090950FB75E962C915E97122F127021FDB9
:1005D0006095F8942081112319F1282B2083E701DD
:1005E0002197F1F728E0462F50E0308160FF1AC0D4
:1005F000382B3083E7012197F1F7BA01759567959C
:10060000215089F7112381F08081892380830FBFD6
:100610005C968D919C910197F1F781E090E0C1CFBC
:100620002923DCCF3923E5CF9081892BEFCF20918F
:10063000CB013091CC012817390771F48091CA01A0
:100640002091C90190E0805C9F4F821B910960E47A
:1006500070E00E94C308089590E080E00895209122
:10066000CB013091CC0128173907B9F49091C90119
:100670008091CA01981789F0E091C901F0E0E05833
:10068000FE4F80812091C90130E02F5F3F4F2F73D3
:1006900033272093C90190E008958FEF9FEF0895CD
:1006A00090E080E0089542E050E06EE271E08DEC71
:1006B00091E00C948D00CF93DF93FC01019000201A
:1006C000E9F73197AF01481B590BBC018DEC91E064
:1006D0000E948D00EC010E9453038C0F9D1FDF913F
:1006E000CF910895CF93DF93EC0180916A029091AE
:1006F0006B02009759F020916C0230916D022C171B
:100700003D0720F081E0DF91CF910895BE016F5F3A
:100710007F4F0E94160A009789F090936B02809396
:100720006A02D0936D02C0936C0220916E023091E8
:100730006F02232B39F7FC011082E4CF80E0E3CF76
:100740001F920F920FB60F9211242F933F934F9346
:100750005F936F937F938F939F93AF93BF93EF9329
:10076000FF938DEC91E00E940B01FF91EF91BF91FF
:10077000AF919F918F917F916F915F914F913F9139
:100780002F910F900FBE0F901F9018951F920F92F0
:100790000FB60F9211242F938F939F93EF93FF9394
:1007A000E091DD01F091DE018081E091E301F091C3
:1007B000E40182FD1BC090818091E6018F5F8F7301
:1007C0002091E701821741F0E091E601F0E0E35368
:1007D000FE4F958F8093E601FF91EF919F918F914E
:1007E0002F910F900FBE0F901F9018958081F4CF1E
:1007F0001F920F920FB60F9211242F933F938F9356
:100800009F93AF93BF938091C1019091C201A0913A
:10081000C301B091C4013091C00123E0230F2D37F3
:1008200058F50196A11DB11D2093C0018093C1010F
:100830009093C201A093C301B093C4018091C501FC
:100840009091C601A091C701B091C8010196A11D68
:10085000B11D8093C5019093C601A093C701B093C9
:10086000C801BF91AF919F918F913F912F910F90B0
:100870000FBE0F901F90189526E8230F0296A11D1A
:10088000B11DD2CF1F920F920FB60F9211242F934A
:100890003F934F935F936F937F938F939F93AF9308
:1008A000BF93EF93FF93E091CB01F091CC01309790
:1008B00049F0A685B7858585968D91FF14C09C91DA
:1008C0008923A1F4FF91EF91BF91AF919F918F91F7
:1008D0007F916F915F914F913F912F910F900FBE3C
:1008E0000F901F9018959C91892361F7A389B48973
:1008F0009C918589809589238C9386899789019716
:10090000F1F7608D718DA685B785558538E020E0BB
:10091000CB010197F1F7822F90E095958795282FCD
:100920004C91452309F02068315091F7868D81FD67
:1009300020958091CA0190E001968F73992730919C
:10094000C901381799F0A091CA01B0E0A058BE4F74
:100950002C938093CA01828D938D0197F1F7A3891F
:10096000B4898C919589892B8C93ACCF868D8160CD
:10097000868FF1CF1092D0011092CF0188EE93E0D4
:10098000A0E0B0E08093D1019093D201A093D30175
:10099000B093D4012EE031E03093CE012093CD010D
:1009A00025EC30E03093DA012093D90124EC30E0DB
:1009B0003093DC012093DB0120EC30E03093DE014A
:1009C0002093DD0121EC30E03093E0012093DF0142
:1009D00022EC30E03093E2012093E10126EC30E09C
:1009E0003093E4012093E3011092E6011092E701B5
:1009F0001092E8011092E9011092730210927202B3
:100A00008093740290937502A0937602B09377025C
:100A100080E291E0909371028093700210928702BD
:100A200010928602109289021092880210928B0214
:100A300010928A0210928D0210928C0260918E02A6
:100A40006E7F6D7F60938E026695617081E068278E
:100A500083E00E94EC0161E083E00E941A02E1EB76
:100A6000F0E0E491E0938002EDE9F0E0E491F0E061
:100A7000EE0FFF1FE057FF4F8591949190938202F4
:100A80008093810260E082E00E941A0280918E02CF
:100A900081FD04C061E082E00E94EC0182E080936D
:100AA0007C02E0EBF0E0E491E0937D02ECE9F0E021
:100AB000E491F0E0EE0FFF1FEA57FF4F859194910C
:100AC00090937F0280937E0210926B0210926A02D2
:100AD00010926D0210926C0210926F0210926E02D0
:100AE00090E080E00E94720320916A0230916B02D4
:100AF000811113C02115310519F0C9010E948D091A
:100B000010926B0210926A0210926F0210926E02A3
:100B100010926D0210926C02089510926F02109262
:100B20006E0260E371E0C9010C94DC0A789484B52C
:100B3000826084BD84B5816084BD85B5826085BDD9
:100B400085B5816085BD80916E00816080936E0067
:100B50001092810080918100826080938100809159
:100B6000810081608093810080918000816080930A
:100B700080008091B10084608093B1008091B000CA
:100B800081608093B00080917A00846080937A00C5
:100B900080917A00826080937A0080917A008160EF
:100BA00080937A0080917A00806880937A00109216
:100BB000C10080E480937C0080917A0080648093FF
:100BC0007A0080917A0086FDFCCF80917800609158
:100BD0007900762F682F072E000C880B990B611572
:100BE00071058105910511F00E942008E091DD0159
:100BF000F091DE0182E08083E091D901F091DA0189
:100C00001082E091DB01F091DC018FEC8083109287
:100C1000E501E091E101F091E20186E08083E0915D
:100C2000DF01F091E001808180618083E091DF014C
:100C3000F091E001808188608083E091DF01F09194
:100C4000E001808180688083E091DF01F091E00124
:100C500080818F7D808310928B0210928A02109285
:100C600089021092880210928702109286028DE902
:100C700091E090938D0280938C0290917C0296314A
:100C800008F047C02DEB30E03093870220938602B6
:100C90002BE931E030938902209388022CE231E085
:100CA00030938B0220938A022091680084E0983070
:100CB00048F031E09E3008F430E081E001C0880F58
:100CC0003A95EAF7822B809368002DE630E0983061
:100CD00050F02BE630E09E3030F02CE630E09631DC
:100CE00010F030E020E03093840220938302292F1B
:100CF00030E0983008F0CCC081E001C0880F9A95B0
:100D0000EAF78093850280918C0290918D02019781
:100D1000F1F780918A0290918B02892B49F1E09141
:100D2000CB01F091CC0182E0E037F80709F1309770
:100D300039F0A389B4899C918589809589238C9306
:100D400080918E028E7F80938E021092CA01109243
:100D5000C90180E792E09093CC018093CB01E091B0
:100D60008302F0918402808190918502892B808397
:100D700081E391E00E945B0360E08AE00E941A0236
:100D800061E089E00E941A0261E087E00E941A0295
:100D900061E088E00E941A0260E089E00E94EC01B4
:100DA00060E087E00E94EC0160E088E00E94EC01D6
:100DB00064E670E080E090E00E947002C0E0D0E065
:100DC0008AE00E94C301019709F040C086E290E0EA
:100DD0000E94720320916A0230916B02811165C0FA
:100DE0002115310519F0C9010E948D0910926B027D
:100DF00010926A0210926F0210926E0210926D02AF
:100E000010926C0261E089E00E94EC0161E087E0F1
:100E10000E94EC0160E088E00E94EC0140916E02CB
:100E200050916F0260916A0270916B028DEC91E0BB
:100E30000E948D000E94530381E791E00E945B03B2
:100E400060E47FE180E090E00E9470028AE00E940E
:100E5000C301892B91F460E089E00E94EC0160E01D
:100E600087E00E94EC0161E088E00E94EC0168EEFE
:100E700073E080E090E00E947002209709F4A0CF18
:100E80000E94F700882309F49BCF0E94000098CFAE
:100E90009E3040F42850310981E001C0880F2A9526
:100EA000EAF72FCF2E503109F7CF86E290E09093EA
:100EB0006F0280936E026AE471E0C9010E94DC0A4D
:100EC000A1CF80916A0290916B02009711F00E946D
:100ED0008D0980E291E0909371028093700280917D
:100EE000CB019091CC018057924071F4E091830244
:100EF000F09184029081809185028095892380837E
:100F00001092CC011092CB0108958F929F92AF92D4
:100F1000BF92CF92DF92EF92FF92CF93DF93EC01DB
:100F2000688179818A819B816115710581059105AF
:100F300021F464E279ED8BE597E02DE133EF41E0B8
:100F400050E00E94290849015A019B01AC01A7EA1F
:100F5000B1E40E9448086B017C01ACEEB4EFA5013E
:100F600094010E945608C60ED71EE81EF91EF7FE11
:100F700006C081E0C81AD108E10880E8F80AC882F2
:100F8000D982EA82FB82C701B6019F77DF91CF91B8
:100F9000FF90EF90DF90CF90BF90AF909F908F9099
:100FA00008958F929F92AF92BF92CF92DF92EF926D
:100FB000FF92609100017091010180910201909176
:100FC0000301611571058105910521F464E279ED54
:100FD0008BE597E02DE133EF41E050E00E942908D6
:100FE00049015A019B01AC01A7EAB1E40E944808FB
:100FF0006B017C01ACEEB4EFA50194010E94560890
:10100000C60ED71EE81EF91EF7FE06C081E0C81AFC
:10101000D108E10880E8F80AC0920001D0920101ED
:10102000E0920201F0920301C701B6019F77FF90A1
:10103000EF90DF90CF90BF90AF909F908F900895EA
:10104000609300017093010180930201909303016A
:101050000895052E97FB1EF400940E94400857FD4A
:1010600007D00E94920807FC03D04EF40C9440086D
:1010700050954095309521953F4F4F4F5F4F0895C4
:1010800090958095709561957F4F8F4F9F4F0895F4
:101090000E94B408A59F900DB49F900DA49F800D51
:1010A000911D11240895B7FF0C9448080E94480828
:1010B000821B930B08952F923F924F925F926F92F3
:1010C0007F928F929F92AF92BF92CF92DF92EF92D8
:1010D000FF920F931F93CF93DF93CDB7DEB7CA1B59
:1010E000DB0B0FB6F894DEBF0FBECDBF09942A8884
:1010F000398848885F846E847D848C849B84AA842C
:10110000B984C884DF80EE80FD800C811B81AA81B8
:10111000B981CE0FD11D0FB6F894DEBF0FBECDBF83
:10112000ED010895A1E21A2EAA1BBB1BFD010DC003
:10113000AA1FBB1FEE1FFF1FA217B307E407F50787
:1011400020F0A21BB30BE40BF50B661F771F881F63
:10115000991F1A9469F760957095809590959B01F9
:10116000AC01BD01CF010895A29FB001B39FC001A2
:10117000A39F700D811D1124911DB29F700D811DC3
:101180001124911D089597FB072E16F4009407D0A3
:1011900077FD09D00E94D70807FC05D03EF4909552
:1011A00081959F4F0895709561957F4F0895AA1B73
:1011B000BB1B51E107C0AA1FBB1FA617B70710F042
:1011C000A61BB70B881F991F5A95A9F78095909574
:1011D000BC01CD010895EE0FFF1F0590F491E02DA5
:1011E00009940F931F93CF93DF938230910510F4EE
:1011F00082E090E0E0919102F091920230E020E0F4
:10120000B0E0A0E0309799F42115310509F44AC007
:10121000281B390B24303105D8F58A819B81611553
:10122000710589F1FB0193838283FE0111C0408126
:1012300051810281138148175907E0F04817590777
:1012400099F4109761F012960C93129713961C93D1
:101250003296CF01DF91CF911F910F9108950093A6
:10126000910210939202F4CF2115310551F04217EB
:10127000530738F0A901DB019A01BD01DF01F80134
:10128000C1CFEF01F9CF9093920280939102CDCF1D
:10129000FE01E20FF31F81939193225031093983AC
:1012A0002883D7CF20918F0230919002232B41F4D5
:1012B00020910601309107013093900220938F0214
:1012C00020910401309105012115310541F42DB71C
:1012D0003EB74091080150910901241B350BE09164
:1012E0008F02F0919002E217F307A0F42E1B3F0B40
:1012F0002817390778F0AC014E5F5F4F2417350788
:1013000048F04E0F5F1F5093900240938F028193DD
:1013100091939FCFF0E0E0E09CCFCF93DF930097D5
:10132000E9F0FC01329713821282A0919102B091F0
:101330009202ED0130E020E01097A1F4208131818C
:10134000820F931F20918F02309190022817390746
:1013500009F061C0F0939002E0938F02DF91CF918A
:101360000895EA01CE17DF07E8F54A815B819E0107
:1013700041155105B1F7E901FB83EA834991599180
:10138000C40FD51FEC17FD0761F48081918102968F
:10139000840F951FE90199838883828193819B83C0
:1013A0008A83F0E0E0E012968D919C91139700976C
:1013B000B9F52D913C911197CD010296820F931FA3
:1013C00020918F02309190022817390739F6309713
:1013D00051F51092920210929102B0939002A09354
:1013E0008F02BCCFD383C28340815181840F951F6C
:1013F000C817D90761F44E5F5F4F88819981480F04
:10140000591F518340838A819B8193838283211555
:10141000310509F0B0CFF0939202E09391029ECF94
:10142000FD01DC01C0CF13821282D7CFB0E0A0E073
:10143000ECE1FAE00C945D088C01009751F4CB01CB
:101440000E94F1088C01C801CDB7DEB7E0E10C9431
:101450007908FC01E60FF71F9C0122503109E217C1
:10146000F30708F49DC0D901CD91DC911197C617FF
:10147000D70798F0C530D10530F3CE010497861711
:10148000970708F3C61BD70B2297C193D1936D938F
:101490007C93CF010E948D09D6CF5B01AC1ABD0AA7
:1014A0004C018C0E9D1EA0919102B0919202512C84
:1014B000412CF12CE12C109731F580918F02909105
:1014C00090028815990509F05CC04616570608F089
:1014D00058C08091040190910501009741F48DB7A7
:1014E0009EB74091080150910901841B950BE817A4
:1014F000F90708F055C0F0939002E0938F02F901CC
:1015000071836083A0CF8D919C91119712966C90FE
:10151000129713967C901397A815B90559F56C018D
:1015200042E0C40ED11CCA14DB0420F1AC014A19FC
:101530005B09DA011296159780F0628273825183FB
:101540004083D9016D937C93E114F10471F0D701CC
:101550001396FC93EE93129776CF22968C0F9D1FD5
:10156000F90191838083F301EFCFF0939202E0932E
:10157000910269CF4816590608F42C017D01D30168
:101580009ACFCB010E94F1087C01009749F0AE018F
:10159000B8010E94D30AC8010E948D09870153CF68
:1015A00010E000E050CFFB01DC0102C001900D9281
:1015B00041505040D8F70895FB01DC0101900D9295
:1015C0000020E1F7089510E0C2E6D0E004C0FE017B
:1015D0000E94EB082196C336D107C9F7F894FFCFD4
:1015E00001000000000093028000000000002D01B7
:1015F0008D00BA007A01EB00C900DD000000000098
:10160000BB028D005003BA0217032F03A2020D0A7A
:1016100000206C6F6767696E672074696D65206371
:101620006F6D706C657465642100416E7920506542
:1016300072736F6E20696E20796F757220526F6FB2
:101640006D2020506C7A20436865636B20497420BC
:10165000006D6573736167652073656E742E00009D
:00000001FF
